:1000000048EF07F00000000000EF00F000000000E3
:0A0010000000000000000000F3D71C
:10001C00154A162A016A026A800E0218006E800EBA
:10002C00005C02E1080E015CD8B049EF06F01D50EF
:10003C00410A11E1FB0E0124F66E160E0220F76E3A
:10004C00000EF86E000E02BEFF0EF8220900F5CF6E
:10005C0080FF22EF06F01D50420A11E1030E01242D
:10006C00F66E170E0220F76E000EF86E000E02BE32
:10007C00FF0EF8220900F5CF80FF22EF06F01D508D
:10008C00430A11E1F30E0124F66E160E0220F76EF0
:10009C00000EF86E000E02BEFF0EF8220900F5CF1E
:1000AC0080FF22EF06F01D50440A11E1E30E0124FB
:1000BC00F66E160E0220F76E000EF86E000E02BEE3
:1000CC00FF0EF8220900F5CF80FF22EF06F01D503D
:1000DC00450A11E1EB0E0124F66E160E0220F76EA6
:1000EC00000EF86E000E02BEFF0EF8220900F5CFCE
:1000FC0080FF22EF06F01D50460A11E1230E012469
:10010C00F66E170E0220F76E000EF86E000E02BE91
:10011C00FF0EF8220900F5CF80FF22EF06F01D50EC
:10012C00470A11E12B0E0124F66E170E0220F76E12
:10013C00000EF86E000E02BEFF0EF8220900F5CF7D
:10014C0080FF22EF06F01D50480A11E11B0E01241E
:10015C00F66E170E0220F76E000EF86E000E02BE41
:10016C00FF0EF8220900F5CF80FF22EF06F01D509C
:10017C00490A11E10B0E0124F66E170E0220F76EE0
:10018C00000EF86E000E02BEFF0EF8220900F5CF2D
:10019C0080FF22EF06F01D504A0A11E1130E0124D4
:1001AC00F66E170E0220F76E000EF86E000E02BEF1
:1001BC00FF0EF8220900F5CF80FF22EF06F01D504C
:1001CC004B0A11E1DB0E0124F66E160E0220F76EBF
:1001DC00000EF86E000E02BEFF0EF8220900F5CFDD
:1001EC0080FF22EF06F01D504C0A11E1A30E0124F2
:1001FC00F66E160E0220F76E000EF86E000E02BEA2
:10020C00FF0EF8220900F5CF80FF22EF06F01D50FB
:10021C004D0A11E1AB0E0124F66E160E0220F76E9C
:10022C00000EF86E000E02BEFF0EF8220900F5CF8C
:10023C0080FF22EF06F01D504E0A11E19B0E0124A7
:10024C00F66E160E0220F76E000EF86E000E02BE51
:10025C00FF0EF8220900F5CF80FF22EF06F01D50AB
:10026C004F0A11E18B0E0124F66E160E0220F76E6A
:10027C00000EF86E000E02BEFF0EF8220900F5CF3C
:10028C0080FF22EF06F01D50500A11E1930E01245D
:10029C00F66E160E0220F76E000EF86E000E02BE01
:1002AC00FF0EF8220900F5CF80FF22EF06F01D505B
:1002BC00510A11E1CB0E0124F66E160E0220F76ED8
:1002CC00000EF86E000E02BEFF0EF8220900F5CFEC
:1002DC0080FF22EF06F01D50520A11E1D30E0124CB
:1002EC00F66E160E0220F76E000EF86E000E02BEB1
:1002FC00FF0EF8220900F5CF80FF22EF06F01D500B
:10030C00530A11E1C30E0124F66E160E0220F76E8D
:10031C00000EF86E000E02BEFF0EF8220900F5CF9B
:10032C0080FF22EF06F01D50540A11E1B30E012498
:10033C00F66E160E0220F76E000EF86E000E02BE60
:10034C00FF0EF8220900F5CF80FF22EF06F01D50BA
:10035C00550A11E1BB0E0124F66E160E0220F76E43
:10036C00000EF86E000E02BEFF0EF8220900F5CF4B
:10037C0080FF22EF06F01D50560A11E1A30E012456
:10038C00F66E170E0220F76E000EF86E000E02BE0F
:10039C00FF0EF8220900F5CF80FF22EF06F01D506A
:1003AC00570A11E1AB0E0124F66E170E0220F76E00
:1003BC00000EF86E000E02BEFF0EF8220900F5CFFB
:1003CC0080FF22EF06F01D50580A11E19B0E01240C
:1003DC00F66E170E0220F76E000EF86E000E02BEBF
:1003EC00FF0EF8220900F5CF80FF22EF06F01D501A
:1003FC00590A11E18B0E0124F66E170E0220F76ECE
:10040C00000EF86E000E02BEFF0EF8220900F5CFAA
:10041C0080FF22EF06F01D505A0A10E1930E0124C2
:10042C00F66E170E0220F76E000EF86E000E02BE6E
:10043C00FF0EF8220900F5CF80FFFED31D50300AC5
:10044C0010E1CB0E0124F66E170E0220F76E000E93
:10045C00F86E000E02BEFF0EF8220900F5CF80FFE9
:10046C00EBD31D50310A10E1D30E0124F66E170E9A
:10047C000220F76E000EF86E000E02BEFF0EF82280
:10048C000900F5CF80FFD8D31D50320A10E1C30EFE
:10049C000124F66E170E0220F76E000EF86E000E99
:1004AC0002BEFF0EF8220900F5CF80FFC5D31D5008
:1004BC00330A10E1B30E0124F66E170E0220F76E0C
:1004CC00000EF86E000E02BEFF0EF8220900F5CFEA
:1004DC0080FFB2D31D50340A10E1BB0E0124F66E1E
:1004EC00170E0220F76E000EF86E000E02BEFF0E05
:1004FC00F8220900F5CF80FF9FD31D50350A10E17B
:10050C00830E0124F66E170E0220F76E000EF86EA5
:10051C00000E02BEFF0EF8220900F5CF80FF8CD32F
:10052C001D50360A10E14B0E0124F66E170E0220F8
:10053C00F76E000EF86E000E02BEFF0EF8220900D8
:10054C00F5CF80FF79D31D50370A10E1530E0124EB
:10055C00F66E170E0220F76E000EF86E000E02BE3D
:10056C00FF0EF8220900F5CF80FF66D31D50380A24
:10057C0010E1430E0124F66E170E0220F76E000EEA
:10058C00F86E000E02BEFF0EF8220900F5CF80FFB8
:10059C0053D31D50390A10E1330E0124F66E170E99
:1005AC000220F76E000EF86E000E02BEFF0EF8224F
:1005BC000900F5CF80FF40D31D502E0A10E13B0EF1
:1005CC000124F66E170E0220F76E000EF86E000E68
:1005DC0002BEFF0EF8220900F5CF80FF2DD31D506F
:1005EC002C0A10E1730E0124F66E170E0220F76E22
:1005FC00000EF86E000E02BEFF0EF8220900F5CFB9
:10060C0080FF1AD31D50220A10E17B0E0124F66ED6
:10061C00170E0220F76E000EF86E000E02BEFF0ED3
:10062C00F8220900F5CF80FF07D31D50930A10E183
:10063C007B0E0124F66E170E0220F76E000EF86E7C
:10064C00000E02BEFF0EF8220900F5CF80FFF4D297
:10065C001D50940A10E17B0E0124F66E170E022039
:10066C00F76E000EF86E000E02BEFF0EF8220900A7
:10067C00F5CF80FFE1D21D50270A10E16B0E01244B
:10068C00F66E170E0220F76E000EF86E000E02BE0C
:10069C00FF0EF8220900F5CF80FFCED21D50910A33
:1006AC0010E16B0E0124F66E170E0220F76E000E91
:1006BC00F86E000E02BEFF0EF8220900F5CF80FF87
:1006CC00BBD21D50920A10E16B0E0124F66E170E70
:1006DC000220F76E000EF86E000E02BEFF0EF8221E
:1006EC000900F5CF80FFA8D21D503F0A10E15B0E28
:1006FC000124F66E170E0220F76E000EF86E000E37
:10070C0002BEFF0EF8220900F5CF80FF95D21D50D6
:10071C00210A10E1630E0124F66E170E0220F76E0B
:10072C00000EF86E000E02BEFF0EF8220900F5CF87
:10073C0080FF82D21D50400A10E1D30E0124F66EC8
:10074C00150E0220F76E000EF86E000E02BEFF0EA4
:10075C00F8220900F5CF80FF6FD21D50230A10E15B
:10076C00DB0E0124F66E150E0220F76E000EF86EED
:10077C00000E02BEFF0EF8220900F5CF80FF5CD2FE
:10078C001D50240A10E1C30E0124F66E150E022032
:10079C00F76E000EF86E000E02BEFF0EF822090076
:1007AC00F5CF80FF49D21D50250A10E1CB0E012454
:1007BC00F66E150E0220F76E000EF86E000E02BEDD
:1007CC00FF0EF8220900F5CF80FF36D21D505E0ACD
:1007DC0010E1F30E0124F66E150E0220F76E000EDA
:1007EC00F86E000E02BEFF0EF8220900F5CF80FF56
:1007FC0023D21D50260A10E1FB0E0124F66E150EB5
:10080C000220F76E000EF86E000E02BEFF0EF822EC
:10081C000900F5CF80FF10D21D502A0A10E1E30E1B
:10082C000124F66E150E0220F76E000EF86E000E07
:10083C0002BEFF0EF8220900F5CF80FFFDD11D503E
:10084C00280A10E1EB0E0124F66E150E0220F76E4D
:10085C00000EF86E000E02BEFF0EF8220900F5CF56
:10086C0080FFEAD11D50290A10E1930E0124F66E87
:10087C00150E0220F76E000EF86E000E02BEFF0E73
:10088C00F8220900F5CF80FFD7D11D502D0A10E1B9
:10089C009B0E0124F66E150E0220F76E000EF86EFC
:1008AC00000E02BEFF0EF8220900F5CF80FFC4D166
:1008BC001D505F0A10E1830E0124F66E150E022006
:1008CC00F76E000EF86E000E02BEFF0EF822090045
:1008DC00F5CF80FFB1D11D502B0A10E18B0E0124F6
:1008EC00F66E150E0220F76E000EF86E000E02BEAC
:1008FC00FF0EF8220900F5CF80FF9ED11D503D0A56
:10090C0010E1B30E0124F66E150E0220F76E000EE8
:10091C00F86E000E02BEFF0EF8220900F5CF80FF24
:10092C008BD11D507E0A10E1BB0E0124F66E150E04
:10093C000220F76E000EF86E000E02BEFF0EF822BB
:10094C000900F5CF80FF78D11D50600A10E1A30E8D
:10095C000124F66E150E0220F76E000EF86E000ED6
:10096C0002BEFF0EF8220900F5CF80FF65D11D50A5
:10097C003A0A10E1AB0E0124F66E150E0220F76E4A
:10098C00000EF86E000E02BEFF0EF8220900F5CF25
:10099C0080FF52D11D503B0A10E1030E0124F66E6C
:1009AC00160E0220F76E000EF86E000E02BEFF0E41
:1009BC00F8220900F5CF80FF3FD11D505C0A10E1F1
:1009CC005B0E0124F66E160E0220F76E000EF86E0A
:1009DC00000E02BEFF0EF8220900F5CF80FF2CD1CD
:1009EC001D502F0A10E1630E0124F66E160E022024
:1009FC00F76E000EF86E000E02BEFF0EF822090014
:100A0C00F5CF80FF19D11D503C0A10E14B0E01248B
:100A1C00F66E160E0220F76E000EF86E000E02BE79
:100A2C00FF0EF8220900F5CF80FF06D11D503E0ABB
:100A3C0010E1530E0124F66E160E0220F76E000E16
:100A4C00F86E000E02BEFF0EF8220900F5CF80FFF3
:100A5C00F3D01D50090A10E17B0E0124F66E160E20
:100A6C000220F76E000EF86E000E02BEFF0EF8228A
:100A7C000900F5CF80FFE0D01D505B0A10E1830E1A
:100A8C000124F66E160E0220F76E000EF86E000EA4
:100A9C0002BEFF0EF8220900F5CF80FFCDD01D500D
:100AAC005D0A10E16B0E0124F66E160E0220F76E35
:100ABC00000EF86E000E02BEFF0EF8220900F5CFF4
:100ACC0080FFBAD01D50200A10E1730E0124F66E7F
:100ADC00160E0220F76E000EF86E000E02BEFF0E10
:100AEC00F8220900F5CF80FFA7D01D50A90A10E10C
:100AFC001B0E0124F66E160E0220F76E000EF86E19
:100B0C00000E02BEFF0EF8220900F5CF80FF94D034
:100B1C001D50AE0A10E1230E0124F66E160E0220B3
:100B2C00F76E000EF86E000E02BEFF0EF8220900E2
:100B3C00F5CF80FF81D01D500A0A10E10B0E012465
:100B4C00F66E160E0220F76E000EF86E000E02BE48
:100B5C00FF0EF8220900F5CF80FF6ED01D50A20ABF
:100B6C0010E1130E0124F66E160E0220F76E000E25
:100B7C00F86E000E02BEFF0EF8220900F5CF80FFC2
:100B8C005BD01D50B00A10E13B0E0124F66E160E20
:100B9C000220F76E000EF86E000E02BEFF0EF82259
:100BAC000900F5CF80FF48D01D50800A10E1430E9C
:100BBC000124F66E160E0220F76E000EF86E000E73
:100BCC0002BEFF0EF8220900F5CF80FF35D01D5074
:100BDC00B60A10E12B0E0124F66E160E0220F76EEB
:100BEC00000EF86E000E02BEFF0EF8220900F5CFC3
:100BFC0080FF22D01D50950A10E1330E0124F66EB1
:100C0C00160E0220F76E000EF86E000E02BEFF0EDE
:100C1C00F8220900F5CF80FF0FD00B0E0124F66EE1
:100C2C00160E0220F76E000EF86E000E02BEFF0EBE
:100C3C00F8220900F5CF80FF1D50A90A0AE1150E14
:100C4C000C6EC60E0D6E0D2EFED70C2EFCD70000B2
:100C5C0016D01D50AE0A0AE1150E0C6EC60E0D6EA6
:100C6C000D2EFED70C2EFCD7000009D00B0E0C6EEF
:100C7C00620E0D6E0D2EFED70C2EFCD70000014A15
:100C8C00022A12EF00F0806A150E0C6EC60E0D6E65
:0C0C9C000D2EFED70C2EFCD7000012001D
:100CA800016A026A800E0218006E800E005C02E182
:100CB800120E015CD8B0D3D01D50000A10E1FE0E10
:100CC8000124F66E140E0220F76E000EF86E000E68
:100CD80002BEFF0EF8220900F5CF80FFA7D01D50F5
:100CE800010A10E1110E0124F66E150E0220F76EAE
:100CF800000EF86E000E02BEFF0EF8220900F5CFB6
:100D080080FF94D01D50020A10E1D80E0124F66E1F
:100D1800140E0220F76E000EF86E000E02BEFF0ED3
:100D2800F8220900F5CF80FF81D01D50030A10E199
:100D3800EB0E0124F66E140E0220F76E000EF86E0C
:100D4800000E02BEFF0EF8220900F5CF80FF6ED01C
:100D58001D50040A10E1240E0124F66E150E02201F
:100D6800F76E000EF86E000E02BEFF0EF8220900A4
:100D7800F5CF80FF5BD01D50050A10E15D0E012400
:100D8800F66E150E0220F76E000EF86E000E02BE0B
:100D9800FF0EF8220900F5CF80FF48D01D50060A43
:100DA80010E1700E0124F66E150E0220F76E000E8B
:100DB800F86E000E02BEFF0EF8220900F5CF80FF84
:100DC80035D01D50070A10E1370E0124F66E150EB6
:100DD8000220F76E000EF86E000E02BEFF0EF8221B
:100DE8000900F5CF80FF22D01D50080A10E14A0EF5
:100DF8000124F66E150E0220F76E000EF86E000E36
:100E080002BEFF0EF8220900F5CF80FF0FD0FE0EBC
:100E18000124F66E140E0220F76E000EF86E000E16
:100E280002BEFF0EF8220900F5CF80FF1E501F10EA
:100E38000AE0150E0C6EC60E0D6E0D2EFED70C2E8A
:100E4800FCD7000009D00B0E0C6E620E0D6E0D2E35
:100E5800FED70C2EFCD70000014A022A23D71E50C9
:100E68001F1005E0040E1526000E162204D0020EEF
:080E78001526000E16221200DF
:100E80000900F5CFE6FF0006FBE10106F9E11200DB
:100E9000156A166AD39ED38CD38AD3889B8C926AA8
:100EA000806A1B6A1C6A800E1C18006E800E005C33
:100EB00002E1180E1B5C50E2176A186A800E1818BF
:100EC000006E800E005C02E1060E175C42E2156ABD
:100ED000166A410E1D6E0EEC00F04E0E1D6E0EECED
:100EE00000F0440E1D6E0EEC00F0520E1D6E0EEC66
:100EF00000F0450E1D6E0EEC00F0570E1D6E0EEC50
:100F000000F0200E1D6E0EEC00F0090E1D6E0EECB2
:100F100000F0800E1618006E800E005C02E10A0ED2
:100F2000155C14E215C019F016C01AF0800E1A18DC
:100F3000006E800E005C02E10A0E195C07E2200ED2
:100F40001D6E0EEC00F0194A1A2AF0D7174A182A1B
:100F5000B5D71B4A1C2AA7D71B6A1C6A800E1C180F
:100F6000006E800E005C02E1140E1B5C18E2176A32
:100F7000186A800E1818006E800E005C02E10F0ED9
:100F8000175C0AE2080E1D6E010E1E6E000E1F6E2B
:100F90008BDE174A182AEDD71B4A1C2ADFD71B6A9B
:100FA0001C6A800E1C18006E800E005C02E1140E9C
:100FB0001B5C18E2176A186A800E1818006E800E03
:100FC000005C02E10F0E175C0AE2070E1D6E010EB7
:100FD0001E6E000E1F6E68DE174A182AEDD71B4AD8
:100FE0001C2ADFD71B6A1C6A800E1C18006E800E3C
:100FF000005C02E11E0E1B5C18E2176A186A800E84
:101000001818006E800E005C02E10F0E175C0AE2F9
:10101000060E1D6E010E1E6E000E1F6E45DE174A77
:10102000182AEDD71B4A1C2ADFD71B6A1C6A800EC0
:101030001C18006E800E005C02E1140E1B5C2DE299
:10104000176A186A800E1818006E800E005C02E1A4
:101050000F0E175C0AE2010E1D6E010E1E6E000ED1
:101060001F6E22DE174A182AEDD7176A186A800EFB
:101070001818006E800E005C02E10F0E175C0AE289
:10108000020E1D6E010E1E6E000E1F6E0DDE174A43
:10109000182AEDD71B4A1C2ACAD71B6A1C6A800E65
:1010A0001C18006E800E005C02E1140E1B5C18E23E
:1010B000176A186A800E1818006E800E005C02E134
:1010C0000F0E175C0AE2030E1D6E010E1E6E000E5F
:1010D0001F6EEADD174A182AEDD71B4A1C2ADFD7F4
:1010E0001B6A1C6A800E1C18006E800E005C02E1F8
:1010F000180E1B5C4FE2176A186A800E1818006EF3
:10110000800E005C02E1020E175C41E2156A166A6D
:10111000200E1D6E0EEC00F0200E1D6E0EEC00F089
:10112000500E1D6E0EEC00F04F0E1D6E0EEC00F01A
:10113000560E1D6E0EEC00F0200E1D6E0EEC00F033
:10114000440E1D6E0EEC00F0490E1D6E0EEC00F00C
:10115000530E1D6E0EEC00F0500E1D6E0EEC00F0E6
:101160004C0E1D6E0EEC00F0410E1D6E0EEC00F0EC
:10117000590E1D6E0EEC00F0200E1D6E0EEC00F0F0
:10118000090E1D6E0EEC00F0174A182AB6D71B4A3E
:101190001C2AA8D71B6A1C6A800E1C18006E800EC1
:1011A000005C02E1180E1B5CD8B081D0156A166A8B
:1011B000200E1D6E0EEC00F0200E1D6E0EEC00F0E9
:1011C000410E1D6E0EEC00F0420E1D6E0EEC00F096
:1011D000430E1D6E0EEC00F0440E1D6E0EEC00F082
:1011E000450E1D6E0EEC00F0460E1D6E0EEC00F06E
:1011F000470E1D6E0EEC00F0480E1D6E0EEC00F05A
:10120000490E1D6E0EEC00F04A0E1D6E0EEC00F045
:101210004B0E1D6E0EEC00F04C0E1D6E0EEC00F031
:101220004D0E1D6E0EEC00F04E0E1D6E0EEC00F01D
:101230004F0E1D6E0EEC00F0500E1D6E0EEC00F009
:10124000510E1D6E0EEC00F0520E1D6E0EEC00F0F5
:10125000530E1D6E0EEC00F0540E1D6E0EEC00F0E1
:10126000550E1D6E0EEC00F0560E1D6E0EEC00F0CD
:10127000570E1D6E0EEC00F0580E1D6E0EEC00F0B9
:10128000590E1D6E0EEC00F05A0E1D6E0EEC00F0A5
:10129000200E1D6E0EEC00F0090E1D6E0EEC00F01F
:1012A000200E1D6E0EEC00F01B4A1C2A75D71B6A1F
:1012B0001C6A800E1C18006E800E005C02E1180E85
:1012C0001B5CD8B081D0156A166A200E1D6E0EEC1C
:1012D00000F0200E1D6E0EEC00F05B0E1D6E0EEC8D
:1012E00000F0310E1D6E0EEC00F0320E1D6E0EEC95
:1012F00000F0330E1D6E0EEC00F0340E1D6E0EEC81
:1013000000F0350E1D6E0EEC00F0360E1D6E0EEC6C
:1013100000F0370E1D6E0EEC00F0380E1D6E0EEC58
:1013200000F0390E1D6E0EEC00F0300E1D6E0EEC4E
:1013300000F05D0E1D6E0EEC00F0200E1D6E0EEC2A
:1013400000F0210E1D6E0EEC00F0400E1D6E0EEC36
:1013500000F0230E1D6E0EEC00F0240E1D6E0EEC40
:1013600000F0250E1D6E0EEC00F05E0E1D6E0EECF4
:1013700000F0260E1D6E0EEC00F02A0E1D6E0EEC17
:1013800000F0280E1D6E0EEC00F0290E1D6E0EEC06
:1013900000F02D0E1D6E0EEC00F02B0E1D6E0EECEF
:1013A00000F05F0E1D6E0EEC00F03D0E1D6E0EEC9B
:1013B00000F0090E1D6E0EEC00F0200E1D6E0EECFE
:1013C00000F01B4A1C2A75D71B6A1C6A800E1C1869
:1013D000006E800E005C02E1180E1B5C49E2176A89
:1013E000186A800E1818006E800E005C02E1020E72
:1013F000175C3BE2200E1D6E0EEC00F0200E1D6E01
:101400000EEC00F0200E1D6E0EEC00F0490E1D6E6D
:101410000EEC00F0200E1D6E0EEC00F0AE0E1D6EF8
:101420000EEC00F0200E1D6E0EEC00F0500E1D6E46
:101430000EEC00F0490E1D6E0EEC00F0430E1D6E1A
:101440000EEC00F0200E1D6E0EEC00F0200E1D6E56
:101450000EEC00F0200E1D6E0EEC00F0090E1D6E5D
:101460000EEC00F0174A182ABCD71B4A1C2AAED72C
:101470001B6A1C6A800E1C18006E800E005C02E164
:101480000A0E1B5C27E2176A186A800E1818006E95
:10149000800E005C02E1200E175C19E20F0E806ED8
:1014A000A70E0C6E3A0E0D6E0D2EFED70C2EFCD72D
:1014B0000000F00E806EA70E0C6E3A0E0D6E0D2E13
:1014C000FED70C2EFCD70000174A182ADED71B4A7D
:0814D0001C2AD0D7E6D4FFD797
:1014D800FEFEFCF8F0E0C080000080C0E0F0F8FC00
:0314E800FEFE0005
:1014EB00AA55AA55AA55AA55AA55AA55AA55AA55F9
:0314FB00AA5500EF
:1014FE00FFFFFFFFFFFFFFFFFFFFFFFFFFFFFFFFEE
:03150E00FFFF00DC
:10151100010103070F1F3F7FFFFF7F3F1F0F0703DE
:03152100010100C5
:1015240000FFFFC3C3C3C3C3C3C3C3C3C3C3C3FF96
:03153400FF0000B5
:10153700C3C3C0E06070381C0FC7C0C0C0C0E0683C
:031547007C3E00E7
:10154A003C3C3F1F9F8FC7E3F1383C3F3F3F1F970B
:03155A0083C1004A
:10155D0000007E81818985A5858585A58589818107
:03156D007E0000FD
:1015700002FE80809E9292F20202FE80809E9292F3
:03158000F2020074
:08158300010101010101010059
:08158B00080808FF0808080029
:081593000000817E0000000051
:08159B00080808080808080010
:0815A300000060700000000070
:0815AB0000006666000000006C
:0815B300242424242424240034
:0815BB00103020201030200048
:0815C300245252FF4A4A2400A1
:0815CB0041A2441822458200F0
:0815D300007E99A5A59978009E
:0815DB0024FF242424FF240056
:0815E300C92A1CFF1C2AC900E3
:0815EB000000007E81000000F9
:0815F3000C30408040300C0078
:0815FB0043A395898D93720052
:08160300000066670000000012
:08160B000000000000000000D7
:08161300003C42FF42240000EC
:08161B007E89A585A5897E00EA
:0816230078FC7E3F7EFC78009C
:08162B00003078FF80FF000091
:08163300003C7E7E7E3C0000BD
:08163B000030484030000000BF
:08164300147E95958142000020
:08164B000024428100000000B0
:08165300008142261818000076
:08165B00010204182040800088
:08166300804020180402010080
:08166B00008181FF0000000076
:0816730000000000000000006F
:08167B00FFFFFFFFFFFFFF006E
:08168300000000FF818100005E
:08168B007E81818181817E00D6
:08169300FF8888888888700038
:08169B00FF4020100804FF00CD
:0816A300FF010101010101003A
:0816AB00FF8080708080FF00C9
:0816B300808080FF8080800030
:0816BB00FF0101010101FF0024
:0816C3006291919189894600B2
:0816CB007C828A8683827C0088
:0816D300FF8888888C8A7100F1
:0816DB00FF10101028448300E9
:0816E300FF81818181463C007A
:0816EB00FF89898981818100DA
:0816F3007E81818181814200AA
:0816FB001F24448444241F0055
:08170300FF89898989897600BC
:08170B00818181FF81818100D1
:081713008E8181FE80808000C0
:08171B00FF0808080808FF00A0
:08172300FF888888888080009F
:08172B007E818189898F48004D
:081733007089898189897E001B
:08173B000000000F0700000090
:0817430076898981898976000D
:08174B007E89898989898600E5
:081753008080808F90A0C0008F
:08175B000060808D9090600099
:08176300000000FD0000000081
:08176B00000000787800000086
:08177300000000060700000061
:08177B00007878007878000086
:081783007989898989898600B2
:08178B008000201F20408000B7
:0817930083858991A1C1810049
:08179B008102241824428100A0
:0817A300F80402010204F80041
:0817AB00FE01010E0101FE0028
:0817B3004281818989956200E1
:0817BB00000C142444FF04009B
:0817C3004183858989916300CF
:0817CB00007E858991A17E00DA
:0817D300002141FF01010000AB
:020000040030CA
:0D000100081F1EFF0281FF3FC03FE03F408F
:00000001FF
